:10400000FC7F002091F4000031780000417800002E
:1040100000000000000000000000000000000000A0
:1040200000000000000000000000000079F4000023
:10403000000000000000000079F40000E5F400003A
:1040400079F4000079F4000079F4000079F40000BC
:1040500079F4000079F400003D7300007DF4000065
:1040600079F4000055F2000079F4000079F40000C2
:1040700079F4000079F4000065F2000079F40000A2
:1040800079F4000079F4000079F4000079F400007C
:1040900015EC000079F4000079F4000079F40000D8
:1040A00079F4000079F4000079F4000079F400005C
:1040B0000000000010B5064C2378002B07D1054BFB
:1040C000002B02D0044800E000BF0123237010BD84
:1040D000D01B002000000000F066010008B5084B6E
:1040E000002B03D00748084900E000BF07480368D9
:1040F000002B03D0064B002B00D0984708BDC046CC
:1041000000000000F0660100D41B0020C41B00204A
:104110000000000008B5024802F0A8FD08BDC04636
:10412000E422002010B50D4C201C05F07BFB19206B
:10413000202105F0C9FA201C09490BF035FE094B76
:104140000A221968201C0BF090FEFA20C0000BF028
:104150000FFA054B02221A6010BDC046F42200205F
:10416000BF54010090160020141D002070B5B34DFF
:104170000621281C03F0C6FB002802D0B04B012208
:104180001A60B04C2178002900D1B1E0281C01212F
:1041900003F0B8FB002825D0AB4B1A68D3175B0F90
:1041A0009B18AA4ADB101268D117490F8A18D2103F
:1041B00028215143A64A5118002B13DB9A008A5834
:1041C000012A0BD1A34ADB0012689B18A24A136094
:1041D000A24B01221A600023237003E00A2AF1D0C7
:1041E000013BE9E7281C022103F08CFB002825D0C5
:1041F000954B1A68D3175B0F9B18944ADB10126813
:10420000D117490F8A18D21028215143904A5118CA
:10421000002B13DB9A008A58012A0BD18D4ADB0050
:1042200012689B1A8C4A13608C4B02221A6000237E
:10423000237003E00A2AF1D00133E9E7281C0321A7
:1042400003F060FB002825D0804B1A68D3175B0F62
:104250009B187D4ADB101268D117490F8A18D210BB
:104260007B4992008918002B14DB28225A438A5874
:10427000012A0BD1774ADB0012689B18784A136039
:10428000764B03221A600023237003E00A2AF1D040
:10429000013BE8E7281C002103F034FB002800D193
:1042A000CAE06A4B1A68D3175B0F9B18664ADB108B
:1042B0001268D117490F8A18D210654992008918DF
:1042C000072B00DDB8E028225A438A58012A0BD177
:1042D000604ADB0012689B1A614A13605F4B04223C
:1042E0001A6000232370A7E00A2AF1D00133E7E720
:1042F0005A4D2B68012B24D1534A5A4B1868136826
:10430000181A554B10601B6898421ADC13604F4A0C
:10431000D8171268400FD617760FB218D610C018EB
:104320000A237343C01001381B18494A9B00985850
:104330000A2804D199504C484C490AF0F1FB01235A
:1043400023702968022925D13F4A464B1968136812
:104350005918414B11601B6899421BDB13603B4AA3
:10436000D9171268490FD017400F8218D010C918FA
:104370000A234343C9100131354A5B189B00985802
:104380000A2805D100219950374838490AF0C8FB5E
:10439000012323702968032925D12C4A314B196840
:1043A0001368591A2E4B11601B6899421BDCD817F1
:1043B000400F1360C018244BC0101A6801380A233C
:1043C000D1174343490F8A18D1105B18204A9B002C
:1043D00098580A2805D100219950234823490AF00A
:1043E0009FFB012323702B68042B25D1174A1D4BFB
:1043F0001968136859181A4B11601B6899421BDB26
:10440000D817400F1360C0180F4BC0101A68013046
:104410000A23D1174343490F8A18D1105B180C4A5D
:104420009B0098580A2805D1002199500E480F4941
:104430000AF076FB0123237070BDC046E422002001
:10444000141D002024190020EC1B0020F01B00206C
:104450009816002020190020E01C0020B01C00202D
:10446000E41C0020DC17002018230020E449010090
:1044700070B5AE4C2178002900D1B2E0AC4D0121DD
:10448000281C03F03FFA002825D0AA4B1A68D3173E
:104490005B0F9B18A84ADB101268D117490F8A18C6
:1044A000D21028215143A54A5118002B13DB9A0042
:1044B0008A58012A0BD1A24ADB0012689B18A14A34
:1044C0001360A14B01221A600023237003E00A2A23
:1044D000F1D0013BE9E7281C022103F013FA002880
:1044E00025D0944B1A68D3175B0F9B18924ADB10A8
:1044F0001268D117490F8A18D210282151438F4AC8
:104500005118002B13DB9A008A58012A0BD18C4AD0
:10451000DB0012689B1A8B4A13608B4B02221A60D5
:104520000023237003E00A2AF1D00133E9E7281CB5
:10453000032103F0E7F9002825D07F4B1A68D31731
:104540005B0F9B187B4ADB101268D117490F8A1842
:10455000D2107A4992008918002B14DB28225A4382
:104560008A58012A0BD1764ADB0012689B18774AD9
:104570001360754B03221A600023237003E00A2A9C
:10458000F1D0013BE8E7281C002103F0BBF900282B
:1045900000D1CAE0684B1A68D3175B0F9B18654AB5
:1045A000DB101268D117490F8A18D21063499200A4
:1045B0008918072B00DDB8E028225A438A58012ABF
:1045C0000BD15F4ADB0012689B1A604A13605E4B96
:1045D00004221A6000232370A7E00A2AF1D00133D5
:1045E000E7E7594D2B68012B24D1524A584B1868E4
:1045F0001368181A534B10601B6898421ADC13603A
:104600004D4AD8171268400FD617760FB218D61039
:10461000C0180A237343C01001381B18474A9B0077
:1046200098580A2804D199504A484B490AF078FA18
:10463000012323702968022925D13E4A444B196879
:10464000136859183F4B11601B6899421BDB1360BC
:10465000394AD9171268490FD017400F8218D01065
:10466000C9180A234343C9100131344A5B189B001F
:1046700098580A2805D100219950364836490AF041
:104680004FFA012323702968032925D12A4A304B88
:1046900019681368591A2D4B11601B6899421BDC6D
:1046A000D817400F1360C018224BC0101A68013889
:1046B0000A23D1174343490F8A18D1105B181F4AA8
:1046C0009B0098580A2805D1002199502148224979
:1046D0000AF026FA012323702B68042B25D1164AF1
:1046E0001B4B196813685918184B11601B689942C5
:1046F0001BDBD817400F1360C0180E4BC0101A6890
:1047000001300A23D1174343490F8A18D1105B188F
:104710000A4A9B0098580A2805D1002199500D4853
:104720000D490AF0FDF90123237070BD9416002095
:10473000E4220020B41C0020B81C002098160020A1
:10474000281900200C1D0020F41B0020101D002043
:10475000DC17002018230020E449010008B5084BAD
:104760001B78002B0BD0074B1B78002B07D1064B77
:104770001B78002B03D1FFF7F9FCFFF779FE08BD8A
:104780008C160020D8170020AC1C002000B5002299
:1047900001280FD10023B248B2498018C0588918A7
:1047A000C8500433282BF6D1A02328325B009A424C
:1047B000F0D18FE1002202280FD10023AA48A94995
:1047C0008018C0588918C8500433282BF6D1A0236C
:1047D00028325B009A42F0D17CE1032810D10022FC
:1047E0000023A2489F498018C0588918C850043334
:1047F000282BF6D1A02328325B009A42F0D169E140
:10480000042810D100220023994896498018C058E6
:104810008918C8500433282BF6D1A02328325B0016
:104820009A42F0D156E1052810D100220023914888
:104830008C498018C0588918C8500433282BF6D1E9
:10484000A02328325B009A42F0D143E1062810D120
:1048500000220023884883498018C0588918C8500E
:104860000433282BF6D1A02328325B009A42F0D1E2
:1048700030E1072810D100220023804879498018B0
:10488000C0588918C8500433282BF6D1A0232832E9
:104890005B009A42F0D11DE1082810D100220023CC
:1048A000774870498018C0588918C8500433282B9D
:1048B000F6D1A02328325B009A42F0D10AE1092800
:1048C00010D1002200236F4866498018C05889180B
:1048D000C8500433282BF6D1A02328325B009A421B
:1048E000F0D1F7E00A2810D10022002366485D4984
:1048F0008018C0588918C8500433282BF6D1A0233B
:1049000028325B009A42F0D1E4E00B2810D100225B
:1049100000235E4853498018C0588918C850043392
:10492000282BF6D1A02328325B009A42F0D1D1E0A7
:104930000C2810D10022002355484A498018C0583D
:104940008918C8500433282BF6D1A02328325B00E5
:104950009A42F0D1BEE00D2810D1002200234D482C
:1049600040498018C0588918C8500433282BF6D104
:10497000A02328325B009A42F0D1ABE00E2810D180
:1049800000220023444837498018C0588918C8506D
:104990000433282BF6D1A02328325B009A42F0D1B1
:1049A00098E00F2810D1002200233C482D498018A0
:1049B000C0588918C8500433282BF6D1A0232832B8
:1049C0005B009A42F0D185E0102810D1002200232C
:1049D000334824498018C0588918C8500433282BFC
:1049E000F6D1A02328325B009A42F0D172E0112860
:1049F00010D1002200232B481A498018C05889186A
:104A0000C8500433282BF6D1A02328325B009A42E9
:104A1000F0D15FE0122810D1002200232248114972
:104A20008018C0588918C8500433282BF6D1A02309
:104A300028325B009A42F0D14CE0132838D1002292
:104A400000231A4807498018C0588918C8500433F1
:104A5000282BF6D1A02328325B009A42F0D139E00E
:104A60002C19002098160020080000208C0C002033
:104A700048010020880200204C1000208C110020EA
:104A8000CC1200200C140020CC0300200C050020C8
:104A90004C0600208C070020CC0800200C0A0020C7
:104AA0004C0B00204C150020CC0D00200C0F0020DA
:104AB00014280FD100220023074808498018C05845
:104AC0008918C8500433282BF6D1A02328325B0064
:104AD0009A42F0D100BDC046E01700209816002091
:104AE0000F4B10B500241C700E4B0F4A1C70012395
:104AF00013700E4A032114600D4A13700D4A1160A1
:104B00000D4A13700D4A13700D4A14600D4A13704C
:104B10000D4B1868FFF73AFE0C4B1C7010BDC046D9
:104B2000AD1C00203C1D00208C160020DC1D002048
:104B3000C8030020DC170020241900209416002050
:104B4000D81D0020D817002090160020AC1C002093
:104B500070B5514E5149301C05F06EFE504D514C10
:104B6000291C221C301C0DF055FD4F4E4F49301CA6
:104B700005F0C6FE291C221C301C0DF04BFD4C4ECE
:104B80004C49301C05F0BCFE291C221C301C0DF0C9
:104B900041FD494E4949301C05F0B2FE291C221C3A
:104BA000301C0DF037FD464E4649301C05F0A8FE7E
:104BB000291C221C301C0DF02DFD434E4349301C96
:104BC00005F09EFE291C221C301C0DF023FD404EDA
:104BD0004049301C05F094FE291C221C301C0DF0AD
:104BE00019FD3D4E3D49301C05F08AFE291C221C52
:104BF000301C0DF00FFD3A4E3A49301C05F080FE96
:104C0000291C221C301C0DF005FD374E3749301C85
:104C100005F076FE291C221C301C0DF0FBFC344EE6
:104C20003449301C05F06CFE291C221C301C0DF090
:104C3000F1FC314E3149301C05F062FE291C221C6A
:104C4000301C0DF0E7FC2E4E2E49301C05F058FEAE
:104C5000291C221C301C0DF0DDFC2B4E2B49301C76
:104C600005F04EFE291C221C301C0DF0D3FC284EF2
:104C70002849301C05F044FE291C221C301C0DF074
:104C8000C9FC254E2549301C05F03AFE301C291C74
:104C9000221C0DF0BFFC70BDBC1C00204849010067
:104CA000819A0000000000201C1C00201C3E010016
:104CB000F81B0020EE3301006C1D00201C4A01008F
:104CC000401D002023540100041E0020F53D01007A
:104CD000641C002071540100401C0020EC490100BC
:104CE000E81C002098540100881C0020EA480100BC
:104CF000281E0020D05401004C1E0020BC290100B9
:104D0000901D00204A540100B41D002011490100EB
:104D1000181D002023480100E01D0020E7290100A4
:104D2000F0B5BF4EBF4D3368BF4CDF177F0FFF1884
:104D30002B68FF10D817400FC0180A237B43C01000
:104D40001B189B001B5985B0063B032B0FD9B74B93
:104D50001B68DA17520FD318DB10984227D1B44BD7
:104D60001B68DA17520FD318DB109F421FD1B14BCB
:104D700000221A700DF0F2FB0AF0C6FAA74BA64A01
:104D80000DF028F90DF0B6FBAB4B1860381C0DF098
:104D9000E5FB0AF0B9FAA14B9F4A0DF01BF90DF0A3
:104DA000A9FBA64BA6491860A64809F0B9FEA04B7E
:104DB0001B68DF177F0FFF189C4BFF101B68D8176D
:104DC000400FC0180A237B43C0101B189B00E358F8
:104DD000063B032B1FD8974B00221A700DF0BEFB29
:104DE0000AF092FA8D4B8C4A0DF0F4F80DF082FB2C
:104DF000914B1860381C0DF0B1FB0AF085FA874B17
:104E0000854A0DF0E7F80DF075FB8C4B8C49186066
:104E10008C4809F085FE32682968D3175B0F9B1810
:104E2000DB100A25C8176B43400F4018C0101B1831
:104E30009B00E058844B042802D10120187001E047
:104E400000201870794F7A4D3868C617760F3018E1
:104E50002E68C0100290F017400F8446B444664696
:104E6000F6100A207043029E8446301C6044800085
:104E70002058764E052802D10120307001E0002034
:104E800030701B78002B2CD0714D09B212B2281C47
:104E9000704B2C1C05F08EFD5C340021201C0A1C7C
:104EA0006D4B04F091FB201C002101226A4B04F0A1
:104EB0008BFB201C00210222674B04F085FB201C89
:104EC000654B0021032204F07FFB644C2378002B08
:104ED0002ED0281C2430624909F022FE00232370C2
:104EE00026E0604B1C78002C22D1594D09B2281CB9
:104EF00012B25C355C4B05F05DFD281C211C221CA8
:104F0000231C04F061FB281C211C0122231C04F03B
:104F10005BFB281C211C0222231C04F055FB0322EE
:104F2000231C281C211C04F04FFB4C4B01221A703F
:104F30003378002B38D03E4D0022B95E0022AA5EA5
:104F40004A4D4B4C2D6823696D422DB200950825C2
:104F50000195201C9D6B1030464BA847251C6C35D5
:104F6000281C01210022444B04F02EFB0121281CA7
:104F70000A1C414B04F028FB281C012102223E4B55
:104F800004F022FB281C3C4B0121032204F01CFBF3
:104F90003A4D2B78002B3AD0201C3430304909F0A0
:104FA000BFFD00232B7032E02E4B1C78002C2ED13D
:104FB0000026B95F1E4E2E4D0022B25E2B4E2B698D
:104FC0003668281C764236B20096082601966C3563
:104FD00010309E6B2A4BB047281C0121221C231C39
:104FE00004F0F2FA01210A1C281C231C04F0ECFA3C
:104FF000281C01210222231C04F0E6FA0322231CB0
:10500000281C012104F0E0FA1C4B01221A7005B0A3
:10501000F0BDC046C046C046000000000000204071
:10502000F01B0020EC1B002098160020B41C002070
:10503000B81C00208C160020641D0020681D002074
:1050400038490100182300203C1D0020AD1C002021
:10505000F4220020B41D0020E4D800000400002049
:10506000D4490100D8170020041E00202819002070
:10507000E4220020901D0020394400006C1A00201A
:10508000401D0020C046C046F0B53F4A85B003929F
:105090000027039CBEB200252368012B05D131B245
:1050A0002AB23A483A4B05F085FC2268042A05D119
:1050B00031B22AB23548374B05F07CFC2368052B0A
:1050C00005D131B22AB23148334B05F073FC226866
:1050D000062A0ED131482AB20292082203690092B0
:1050E000524201929A6B1030944631B2029A2C4B84
:1050F000E0472368072B05D131B22AB22348284B59
:1051000005F058FC2368082B0ED1244A31B21069EF
:105110002AB202920822524200920193836B029AB1
:105120009C461A481F4BE0472268092A05D131B234
:105130002AB216481B4B05F03DFC23680A2B05D10B
:1051400031B22AB21148184B05F034FC2268022A09
:1051500005D1164B1F60164B1D600023236023688A
:10516000032B05D1134B1F60134B1D6000232360DD
:1051700008352834402D8FD1039A08370432039222
:10518000502F86D105B0F0BD98160020F4220020E3
:10519000BC1C0020281E0020881C0020E4220020C7
:1051A000401C0020E81C0020641C0020EC1B002098
:1051B000F01B0020B41C0020B81C002070B5011E9C
:1051C00000D13BE1954E3378002B00D168E2944D3D
:1051D000944B2A68944802322A60524212B200214B
:1051E00005F0E8FB2B68022B08D02022191C914304
:1051F000102903D0202B01D0402B03D18B488C49A0
:1052000009F08EFC2A680F2A30DC8A4C00210A1C27
:10521000201C894B04F0D8F9201C01210022864B68
:1052200004F0D2F9201C00210122834B04F0CCF9B8
:1052300001210A1C201C804B04F0C6F9201C00210F
:1052400002227D4B04F0C0F9201C012102227A4B7E
:1052500004F0BAF9201C00210322774B04F0B4F9C2
:10526000201C01210322744B04F0AEF92B680F2B94
:1052700030DD704C00210A1C201C6F4B04F0A4F997
:10528000201C012100226C4B04F09EF9201C0021FF
:105290000122694B04F098F901210A1C201C664B7D
:1052A00004F092F9201C00210222634B04F08CF9D7
:1052B000201C01210222604B04F086F900210B1C06
:1052C000201C032204F080F9201C0121032200236A
:1052D00004F07AF929681F2930DD564C00210A1C98
:1052E000201C554B04F070F9201C01210022524B68
:1052F00004F06AF9201C002101224F4B04F064F9EC
:1053000001210A1C201C4C4B04F05EF900210B1CEF
:10531000201C022204F058F9201C01210222002343
:1053200004F052F900210B1C201C032204F04CF95C
:10533000201C01210322002304F046F92A682F2AA9
:1053400030DD3C4C00210A1C201C3B4B04F03CF996
:10535000201C01210022384B04F036F900210B1CDF
:10536000201C012204F030F901210A1C201C00231A
:1053700004F02AF900210B1C201C022204F024F95D
:10538000201C01210222002304F01EF900210B1C25
:10539000201C032204F018F9201C01210322002301
:1053A00004F012F92B683F2B30DD224C00210A1C3F
:1053B0000B1C201C04F008F90022131C201C0121E6
:1053C00004F002F900210B1C201C012204F0FCF85F
:1053D00001210A1C201C002304F0F6F800210B1CFC
:1053E000201C022204F0F0F8201C012102220023DC
:1053F00004F0EAF800210B1C201C032204F0E4F85E
:10540000201C01210322002304F0DEF829683C2936
:1054100000DC45E100232B60337041E1D817002008
:10542000D81D0020E01D0020F422002018230020B9
:10543000144A010050230020FFFF0000994D9A48B4
:105440002A68931C3E3A2B6012B2984B05F0B2FAD0
:105450002B68022B08D02022191C9143102903D05D
:10546000202B01D0402B03D19148924909F058FBE1
:105470002A680F2A30DC904C00210A1C0B1C201CCF
:1054800004F0A2F80022131C201C012104F09CF857
:1054900000210B1C201C012204F096F801210A1C9B
:1054A000201C002304F090F800210B1C201C022279
:1054B00004F08AF8201C01210222002304F084F861
:1054C00000210B1C201C032204F07EF8201C01216B
:1054D0000322002304F078F82B68102B30DD764C83
:1054E00000210A1C201C754B04F06EF8201C0121C1
:1054F0000022724B04F068F800210B1C201C0122D2
:1055000004F062F801210A1C201C002304F05CF85E
:1055100000210B1C201C022204F056F8201C012143
:105520000222002304F050F800210B1C201C03224F
:1055300004F04AF8201C01210322002304F044F85F
:105540002968202930DD5C4C00210A1C201C5B4BA3
:1055500004F03AF8201C01210022584B04F034F8E2
:10556000201C00210122554B04F02EF801210A1CB9
:10557000201C524B04F028F800210B1C201C022296
:1055800004F022F8201C01210222002304F01CF860
:1055900000210B1C201C032204F016F8201C012102
:1055A0000322002304F010F82A68302A30DD424C30
:1055B00000210A1C201C414B04F006F8201C01218C
:1055C00000223E4B04F000F8201C002101223B4B3E
:1055D00003F0FAFF01210A1C201C384B03F0F4FFF2
:1055E000201C00210222354B03F0EEFF201C01217C
:1055F0000222324B03F0E8FF00210B1C201C032287
:1056000003F0E2FF201C01210322002303F0DCFF52
:105610002B683C2B30DD284C00210A1C201C274B1A
:1056200003F0D2FF201C01210022244B03F0CCFF09
:10563000201C00210122214B03F0C6FF01210A1C7E
:10564000201C1E4B03F0C0FF201C002102221B4B1C
:1056500003F0BAFF201C01210222184B03F0B4FF13
:10566000201C00210322154B03F0AEFF201C01215A
:105670000322124B03F0A8FF29683C2910DDFA2011
:105680003D23C0002B6009F073FF0D490D4B012233
:105690001A600A6801320A60152A01D105221A60CF
:1056A00070BDC046D81D0020F4220020E01D00205F
:1056B00018230020144A010050230020FFFF00009F
:1056C00090160020141D00202D4B10B51B78002BC8
:1056D00051D02C4B1B78002B4DD02B4C2B4B012247
:1056E0001A702368D817400FC318D8100CF036FF73
:1056F00009F00AFE214B204A0CF06CFC0CF0FAFE7B
:105700002060234C2368D817400FC318D8100CF022
:1057100025FF09F0F9FD194B174A0CF05BFC0CF062
:10572000E9FE20601B4C2368D817400FC318D8101F
:105730000CF014FF09F0E8FD104B0F4A0CF04AFC86
:105740000CF0D8FE2060144C2368D817400FC31803
:10575000D8100CF003FF09F0D7FD084B064A0CF0F7
:1057600039FC0CF0C7FE002120600C4803F01EFF3E
:105770000020FFF723FD10BD0000000000002040C6
:105780003C1D0020AD1C0020EC1B0020AC1C0020A8
:10579000F01B0020B41C0020B81C00205023002067
:1057A000F8B5FFF771FC0120FFF708FD224B1D78CB
:1057B000002D02D0FFF7B4FA3BE0204B1A78002A04
:1057C0001DD01F4F1F49381C03F0F0FE1E4C1F4E0A
:1057D0002168301C0131216089B204F097FF1C4B15
:1057E000381C0022995E1B4B5C380027DA5F331CA3
:1057F00005F0E0F82368062B01DD104F3D700F4FD8
:105800003978002915D1144C14482268D31C3D3A2C
:10581000236012B2124B05F0CDF822683C2A08DD55
:10582000FA203D23C000236009F0A2FE0D4B0222A6
:105830001A60FFF749FFF8BD8C160020C80300204E
:1058400050230020E4D80000DC1D0020181D00209B
:10585000641D0020681D0020D81D0020F4220020B7
:10586000E01D0020141D002038B5334800F024FF4F
:105870000028FAD0314C206805285CD80BF046FE91
:10588000031F22272F432E4D281C03F0CBFF00219E
:105890000A1C2C4B281C05F08DF81620302103F033
:1058A00013FF2949281C0AF07FFA281C103804210C
:1058B00002F028F800283ED0042323603BE0FEF7E6
:1058C00031FC38E0FFF70CF90323236033E0FEF7E7
:1058D00045FF1B4803F0A6FFFFF762FF2BE0184DC2
:1058E000281C03F09FFF0021281C0A1C174B05F001
:1058F00061F8281C1038042102F004F800281AD09E
:105900000123236017E00E4D281C03F08BFF0021BC
:10591000281C0A1C0E4B05F04DF8281C10380421D9
:1059200001F0F0FF002806D00A4B01221A60FFF7B1
:10593000D7F80023236038BDE4220020141D002086
:10594000F42200206C1D0020C65401001C1C002005
:10595000F81B002090160020031C007C0822104039
:1059600004D0D86A5B6AC01A00D501487047C046A7
:10597000FFFFFF7F08B5103007F09EFD08BD08B59A
:10598000103007F0DDFB08BD08B5103007F0FAFA5B
:1059900008BD13B56C4607341030211C012207F0F6
:1059A0002FFA012801D1207801E00120404216BDE4
:1059B00008B58C23DB00C01808F011FD08BD08B540
:1059C0008C23DB00C01808F099FD08BD10B58C24AD
:1059D000E400001908F051FD10BD10B58C24E4005E
:1059E000001908F009FE10BD10B5034B041C03603C
:1059F00002F03CFD201C10BD805A010010B5041CB3
:105A0000FFF7F2FF201C0AF0B1F9201C10BD07B50A
:105A10006B46D97107331030191C012207F04CFD79
:105A20000EBD30B5051C8BB001A80A1C0024291C32
:105A300001230470447007F0D2FB0BB030BD0000AE
:105A4000017870220023114202D0024B186001231A
:105A5000181C70477826002070B5031C0A1C1033F0
:105A6000103270CA70C370CA70C370CA70C34B68FA
:105A70008C68CD6843600B1C8460C56034331A7831
:105A8000031C34331A700B1C35331A78031C35335E
:105A90008E6B1A70CB6B8663C3638B1CDA8F831C8F
:105AA000DA870B1DDA8F4C6C896C031DDA8744642E
:105AB000816470BD73B5041C3834051C201C03F0D0
:105AC000B7FE061C201C03F0C3FE2B1C0021009611
:105AD00001901033201C0A1C02F0D4FB73BD38B5B2
:105AE00009F014FD041C09F011FD4443012009F0E4
:105AF000C7FE051C022009F0C3FE684360400AF09F
:105B00006FFC38BD70470000F0B59FB001904F4E5C
:105B10004F48504C35180291281C211C0392FFF766
:105B200080FF002808D111AB18705870291C181C70
:105B3000221C012307F020FC45482122002308A94C
:105B40006A440B7013700593FA27434B3618BF0055
:105B5000301C424906970493FFF763FF041E25D1CA
:105B600011AD3D4928746874139715AF3B4A1290E4
:105B70001191381C311C632307F031FB08AB07CFB0
:105B800007C307CF07C307CF07C3AB68129AED68F7
:105B9000211C08A805920693079507F025FA201CFA
:105BA00004A906F079FD08A807F012FBFA230024E7
:105BB00011AD9B002C746C7424491393244A264B1A
:105BC00015AE89181193254A301C6323129407F0EF
:105BD00006FB08AB07CE07C307CE07C307CE07C334
:105BE000A868129BED68211C069008A805930795EC
:105BF00007F0FAF904A806F047FD0299431C039A3E
:105C0000019806F0E5FC211C051C08A807F0ECF93A
:105C1000691C11D1201C04A906F03EFD01980299CF
:105C2000039A231C06F0D4FC051C421C04D108A8CE
:105C300007F0CEFA201C07E0281C04A906F02CFD72
:105C400008A807F0C5FA01201FB0F0BD741E00209F
:105C50003C040000905701000055010094570100DA
:105C600010B50021041C383003F0A0FC2A23FF33B8
:105C7000E01801F0C1FD10BDF0B5071C34379BB032
:105C8000061C381C08F0AAFFCF4B341C1B88383484
:105C90000B93CE4B201C1B8800250C93CC4B1B88F0
:105CA0000D93CC4B1B880E93CB4B1B780F93CB4B98
:105CB0001B781093CA4B1B681193CA4B1B78129325
:105CC000C94B1B78139302F015FA03211590201C81
:105CD00002F0E0F9201C03F0D7FDC4491490201C09
:105CE00003F0CCFDA22149007118081C069101F0B7
:105CF000BBFA069801F0C0F9EAB20698049201F0E6
:105D0000AFFABB4BEB5C834206D2049B01350133F7
:105D1000DBB20493052DEFD1201CB64903F082FCC1
:105D2000202334220093201CA023002102F026F916
:105D3000201CB14903F076FC02230093201C0021B3
:105D40003822AE4B02F00EFC381C08F05DFF002834
:105D50006FD0381C08F03CFF00286AD1201C0021BD
:105D600003F060FC1C2500210A1CA023201C0095C8
:105D700002F004F9201CA04903F054FC0223009314
:105D8000201C002104229E4B02F0ECFB201C9949B0
:105D900003F048FC201C03F04BFD0221031C2AB237
:105DA0000091201C0021043502F0E8F8342DF1D1D7
:105DB0005625201C03F04CFD85420CDA201C03F014
:105DC00037FD0221031C2AB20091201C002102F0A1
:105DD000D5F80435EDE700230221099301250A9344
:105DE000059109F08DFB0A9A801A2828F9D9381CE8
:105DF00008F0AEFE09F084FB0A90301C01F038FD7B
:105E0000099B06980133099301F02EFA301C0721F3
:105E100001F080FD002819D1301C052101F07AFD28
:105E2000002813D1301C062101F074FD00280DD18B
:105E300036E0201C6F4903F0F5FB10230093201C73
:105E400032213C220A2302F099F887E7381C08F037
:105E5000CBFE5D4B0B990C9A19805C4B0D991A8007
:105E60005B4B0E9A19805B4B0F991A805A4B109A14
:105E700019705A4B11991A70594B129A1960594B53
:105E800013991A70584B1970201C159902F002F9D9
:105E9000201C149903F0ECFCFFF734FE1BB0F0BD9E
:105EA000301C0221042201F047FD002804D005998E
:105EB0004BB2032B00DC0DE2301C0121042201F067
:105EC0003BFD002804D0059A53B2002B00DD07E209
:105ED000059B5BB20793042B00D95CE1181C0BF007
:105EE0001FFB05004B00E900F3004401301C0321B7
:105EF000042201F021FD002803D00499032900D8D1
:105F0000F4E1301C0021042201F016FD002803D02A
:105F1000049A002A00D0EFE1301C042101F0FAFCC1
:105F2000002805D004994B424B419B00049301E0AB
:105F3000002D0CD02E4B049A0698995C01F068F95C
:105F4000301CDC300421049A06F094FE0125002365
:105F50000393069801F05AF90399814200D31AE19C
:105F6000FF2300931A1C0698039901F02CF9039B58
:105F70000133DBB20393ECE7301C042101F0CAFCCF
:105F800000285BD0381C08F023FE00283AD0381CCB
:105F900008F018FE321CDC320392101C0121002292
:105FA00006F068FE381C08F02FFE01250890002836
:105FB00044D1381C062108F01DFE039808990622DA
:105FC00006F058FE3AE0C04658260020442600203D
:105FD0005426002042260020502600207C1A002053
:105FE000482600204026002051260020E05D0100C8
:105FF000025A010068520000FFFF0000CC56010069
:10600000FD570100381C08F0FFFD331CDC33051C74
:106010000393381C002D08D008F0CEFD0121039811
:106020000A1C06F027FE012508E0062108F0E2FD23
:10603000291C0398062206F01DFE0125301C0321B1
:10604000042201F079FC002821D0381C08F0DCFD86
:1060500007281CD8381C08F0BBFD002800D151E1EE
:10606000381C08F0AFFD301C0121DC30002206F0A6
:1060700001FE381C012108F0BDFD381C08F0C4FDEC
:10608000021C301CDC30002106F0F4FD0125301C20
:106090000021042201F050FC002876D0381C08F0C2
:1060A000B3FD002871D0381C08F092FD0390002841
:1060B0006BD130E1301C042101F024FC00286AD0AF
:1060C000301CFFF7CDFD66E0301C042101F022FCFE
:1060D000002860D0201CDF4903F0A4FA202300939D
:1060E000201C6021342202F0C7F91E230093201CDB
:1060F0006121352216AD02F0BFF9D7490E22281CC6
:106100000CF0F5FA281C04210522FFF7FDFC0028FD
:1061100008D04223301CAB7210305023291C2B7343
:1061200004F08CFA42210023FF317354984201D0CD
:10613000CA4900E0CA49201C03F074FA20230093E6
:10614000201C6021342202F097F91E23352200938F
:10615000201C612102F090F9C820400009F008FAE3
:1061600042220125FF32B55415E0301C042101F014
:10617000D1FB002800D0E0E0301C0421192201F0FE
:10618000D3FB002800D0D8E005E0002D03D0381C58
:1061900008F0D4FC0125099907230B40032B01DDEE
:1061A000B04900E0B049201C03F03CFA079A201CDB
:1061B00053019BB219B2039320230093342202F0BF
:1061C0005BF903991E220131009209B2201C35228D
:1061D0001E2302F051F9002D55D0201CA24903F0D6
:1061E00021FA301C0121042201F0A6FB002813D063
:1061F000079D202301356D01ADB229B20093201C0B
:10620000342202F039F901351E22009229B2201CF5
:1062100035221E2302F030F9301C0221042201F045
:106220008BFB002812D0079D2023013D6D01ADB2EC
:1062300029B20093201C342202F01EF901351E23DE
:1062400029B20093201C352202F016F9079B012B7E
:1062500000D06AE1381C08F0D7FC002800D142E1E8
:10626000381C08F0B5FC002800D03CE1201C79491E
:1062700003F0D8F902230093201C302138227B4BF5
:1062800002F070F91BE00599002915D1049A002A43
:106290001BD0201C6F4903F0C5F904995422CB0090
:1062A0000399D21A1E311BB2009309B212B2201CFC
:1062B000022302F0E1F808E0079A012A05D1381C10
:1062C00008F0A2FC002800D01AE1069800F0D4FEE5
:1062D000002586E5059B01250133DBB20593EBE53F
:1062E000059B0125013BDBB20593F1E5049B0125EC
:1062F0000133DBB2049304E6049B0125013BDBB2CE
:10630000049309E6381C08F07FFC411CC9B2381C14
:1063100008F070FCB1E6381C08F076FC411EC9B2EA
:10632000381C08F067FC381C08F06EFC021C301C9E
:106330000399DC3006F09EFC29E7201C454903F058
:1063400071F920230093201C8021342202F094F85C
:106350001E230093201C8121352216AD02F08CF8FB
:106360003D490E22281C0CF0C2F904210522281CEC
:10637000FFF7CAFB192203900421301C01F0D4FA64
:10638000039A0890002A1ED0089B002B10D14223AC
:10639000AB7250232B73AC235B00FA20F15C8000BE
:1063A0000BF016F903235843B0235B00F05204E0CE
:1063B0000122B02352425B00F252301C103016A969
:1063C00004F029F9039042250399FF350023735502
:1063D00099426ED0264B01221A70089A002A5BD18E
:1063E000201C1E4903F01EF920230093201C80214D
:1063F000342202F041F81E23352200938121201C13
:1064000002F03AF8C820400009F0B2F84221012316
:10641000FF317354381C08F0E7FB164B0B9A0C99AC
:106420001A80154B0D9A1980144B0E991A80144B33
:106430000F9A1980134B10991A70134B119A1970F7
:10644000124B12991A60124B139A1970114B1A7051
:106450001AE5C046FFFF0000A25701006886000051
:10646000E4D8000068CC00006852000049550100E3
:10647000701E0020582600204426002054260020AC
:1064800042260020502600207C1A002048260020AA
:1064900040260020512600200A2009F069F8301C0F
:1064A00001F0E6F9301C042101F034FA0028F3D0A1
:1064B00096E7201C1F4903F0B5F820230093201C09
:1064C0008021342201F0D8FF1E230093201C81215B
:1064D000352201F0D1FFC820400009F049F801231E
:1064E00073551D1C57E6201C134903F09BF810231D
:1064F0000093201C32213C220A2301F03FFDDEE6FE
:10650000201C0E4903F08EF8381C08F07DFB03991F
:1065100080005422121A1E3100B2009009B212B249
:10652000201C022301F0A8FFCFE6059B002B00D121
:10653000ACE6CAE6E4D8000068520000FFFF0000A5
:10654000F0B5B0256D00435B8FB01AB2041C013268
:1065500001D0013B4353201C072101F0DBF9002847
:1065600008D1635F002B00D08BE0474B1B78002BDA
:1065700000D186E0444A1378002B00D17EE0434BE3
:10658000434A1B88261C0293424B12881B883836CC
:106590000493414B301C1B88039205933F4B251CF1
:1065A0001B78343506933E4B1B7807933D4B1B6895
:1065B00008933D4B1B7809933C4B1B780A9301F0E1
:1065C00099FD03210C90301C01F064FD301C03F098
:1065D0005BF937490B90301C03F050F9281C08F088
:1065E000FDFA281C08F0F4FA0D90281C08F0E4FAD3
:1065F000221C1032101C2F49019203F06FF8A223C5
:106600005B00E718381C00F02FFE381C00F034FD4A
:106610000198012104F00AF81B4A0023201C137082
:10662000FFF748FA0D9B194F002B02D1281C08F0E8
:10663000C9FA281C08F0D8FA029A154B3A80039A36
:10664000301C1A80049A134B0C991A80124B059A2D
:106650001A80124B069A1A70114B079A1A70114B36
:10666000089A1A60104B099A1A70104B0A9A1A70FD
:1066700001F010FD301C0B9903F0FAF8201CFFF715
:10668000FBFA0FB0F0BDC046701E00205826002057
:1066900044260020542600204226002050260020B8
:1066A0007C1A002048260020402600205126002089
:1066B000E05D0100D05A0100F0B5051C8DB0FC353D
:1066C0002E6E041C08F01CFFAC277F00E35D301A1F
:1066D000A0267600984204D9A05D0590002800D03D
:1066E00086E0A65D0596002E7FD1201CFFF728FFCF
:1066F0002C21FF31601805F035FE95225200A018BC
:1067000005F064FC201C343008F022FA201CFFF74E
:10671000D1F9231C6C33181C049303F099F8C0B210
:106720000790049803F084F8C0B206903C490AA888
:1067300008220BF0DCFF059E0AAF07998E4227D294
:1067400000250698EBB283421ED229B232B20498D9
:1067500003F088FF05F079FF0102090E030409AA7E
:106760008C461B0E107053709170DBB2C2B2604643
:106770000393C3B2795D0093A2235B00E018039BEF
:1067800000F021FD0135DCE70136F6B23F18D4E711
:10679000244BA2221B78251C5200FC35A618002B86
:1067A00011D00AABA86B0A211F780AF007FF00235B
:1067B0000422181C8A4258414242D2B20093301C33
:1067C000391C00F000FD301C00F056FC301C00F0BD
:1067D0004BFD08F09BFE296C401AE86305F0D0FBE6
:1067E0000122A0239340E25417E00022059214E016
:1067F00008F086FEE35DC018AB6B28660133AB631F
:106800000023A35508F082FE2864201C01F030F814
:106810002C23FF33E01805F051FC05980DB0F0BDB6
:1068200030550100701E002008B509484223FF338F
:10683000C35C002B0BD0A0235B00C35C002B04D1F6
:10684000031CFC331B6C002B01D0FFF735FF08BD88
:10685000E4220020424B434A73B500259D54424A2E
:1068600019219D54414A424C9D54424A0126995453
:10687000414A201C9D54414ADD711A6050212B1C55
:10688000009601964022103004F054F8201C1E217E
:106890001F22383001F0A2F8201C2B1C0096019614
:1068A000022104226C3004F045F8231CA0331D7033
:1068B000231CA1331D70231C94331D60FA22231C5A
:1068C000920098331A60211C2D4B90310B60211CD3
:1068D000C4310D70211CC5310D70211CD4310D60E7
:1068E000211CEC310D70211CED310D70211CE031AB
:1068F0000D60211CE4310A60221CDC321360231C71
:10690000FF335D749D74231CFC335D622C23FF33C5
:10691000E5549623B340E5542E23FF33E5549723E3
:10692000B340E6543023FF33E5549823B340E55495
:106930004223FF33E554A123B340E554A2235B0077
:10694000E01808212622522300F026FCB0237242D0
:10695000B340E252201C0B490B4A0BF05BFE73BDA7
:10696000741E00203C0400003D040000640400008C
:10697000E4220020660400006904000020550100A4
:1069800000550100ED69000000000020F0B58DB059
:106990001E1C12AB1C7801230D1C00930193171CC5
:1069A0004E210A2203A803F0C5FF03A802F03AFF14
:1069B000022103A8494200220B4B03F031FB4E2079
:1069C0006043391C0090321C0A20614362434443F7
:1069D0002B6801949C6B281C03ABA04703A803F011
:1069E0004FF80DB0F0BDC046FD570100A2235B007B
:1069F00010B5041CC01800F0D9FA201C6C3003F04C
:106A00003FF8201C3830FEF7EFFF201C103003F059
:106A100037F8201C10BD0000F0B58DB0041C2049D3
:106A200003A803F009FF201CFFF746FE201C3430AA
:106A30001C49002208F036F81825201CFFF73CFE00
:106A40000028FAD0261C013D1036EFB2301C02F0AF
:106A5000E9FEFDB2144A012369B213701A1C002327
:106A60000A2901DC0A3FFBB2311C5BB20092201CF8
:106A70000222261CFFF78AFF6C360021301C0A1CFC
:106A800003AB03F097FF002DD7D1301C02F0CAFEF4
:106A9000201CFFF711FE03A802F0F2FF0DB0F0BDBD
:106AA000765801006458010050260020F0B5877E1A
:106AB00097B00797878B65490497C78B644B08ADE0
:106AC00008311022041C0126281C1E7005970BF0AB
:106AD0000EFE00232B745F485F4B291CC018FEF785
:106AE000A0FF0390002807D0201C009610300499C6
:106AF000059A2B1C03F024FD0DA8584903F09CFEB9
:106B0000201CFFF7D9FD0028FAD0251C039F103563
:106B1000281C002F02D003F0C5FD22E002F082FE07
:106B2000281C4F4902F07EFD494E092031780F2282
:106B300050234A434B434143281C0091039901F0E1
:106B4000EBFC281C474902F06DFD337811215800F9
:106B5000594302F0B9FDB1235B00281CE11809F08C
:106B600035F9414E0021331CFC339A6B0723134047
:106B7000032B00D93A49351C1035281C02F052FD70
:106B8000281C02F055FE071C281C02F061FE0021A3
:106B900000900A1C281C3B1CFC3601F06DFCB26BFB
:106BA000072313400DA8032B03D9012103F0AEFDE9
:106BB00002E0002103F0AAFD2B4E351C1035281CE5
:106BC00002F036FE071C0DA802F032FE503F7B1E7D
:106BD0009F4101377843C0B202900DA802F038FE01
:106BE0004743281CFFB2069702F022FE029BC71AF9
:106BF000281C02F02DFEFFB239B2069F3369C21B7A
:106C0000029FD2B238B2069F009038B201909F6BBB
:106C1000281C0DABB847301C042100F073FE00287F
:106C200000D16DE7201C343007F088FF0123201CC1
:106C3000009301930499059A079B103003F07EFDA1
:106C40000DA802F01DFF17B0F0BDC0463055010081
:106C500050260020741E00203C04000058550100FE
:106C600068CC0000FFFF0000E4220020F0B5BC4B20
:106C7000B1211A78041C490002209DB0824361189A
:106C80001A70081C02910922B6490BF030FD6C23E2
:106C90000027FF33E754AC2328225B00E254A023F3
:106CA0005B000122E2549923FF225B00E254A223FD
:106CB0005B00E318181C039300F088F9039800F0B8
:106CC000D3FA201C00F0C4FD201C00F0D1FD3A1CBA
:106CD0000521201C00F030FE05900690201C383065
:106CE000251C1035049000F0D9FF0498032101F011
:106CF000D1F9281C391C02F059FC9B4E012131703E
:106D0000281C9A4902F08EFC337802220093201C42
:106D1000131C291CFFF73AFE95493A1C281C02F067
:106D2000B7FC281C02F094FD0790281C02F094F98F
:106D30003178079A4143531A19B2381C02F0C4FC47
:106D40008C49281C09F030F8201CFEF7B3FE8A4E4F
:106D50008A4A8C23DB00F018B11802231A2207F0AC
:106D6000A9FA3A1CB84221D0854BF01806F030FA47
:106D70000121301C07F034F9011EB94209D08048C6
:106D8000311C3718381C06F021F8002800D1E4E047
:106D900005E0301C07F024F90028F0D1DDE0381CB4
:106DA000FEF74EFE002800D1D7E00122A1235B00B0
:106DB000E254281C002A0DD1724902F069FC724984
:106DC000281C09F003F8201CFEF774FE642008F06C
:106DD000CFFB0AE06D49002202F05AFC281C6C49E6
:106DE00008F0F4FF201CFEF765FE201C00F040FDBB
:106DF0000599002905D1201C0521059A00F09CFD6C
:106E000006900022281C594902F042FC281C00214F
:106E100002F0CCFB584F5A4A0299BE18301CFEF7BC
:106E200000FE002808D109AB18705870311C181CDE
:106E3000029A012306F0A0FA002309AE33707370A2
:106E4000B1235B00E35C2F2B0ED16423FF33E35CA3
:106E5000002B09D14A4BFE18301C06F0B9F9301C42
:106E6000391C05F0B3FF14E04548029A3F18391C5D
:106E7000301C012306F0B3F900280AD032787023C1
:106E80001A4206D03B1C07CE07C307CE07C307CE66
:106E900007C3029A3F4909A805F012FC201C09A962
:106EA0009030261CFEF7D8FDDC363B4A3B4909A84A
:106EB00005F006FC271C09A9301CFEF7CDFD343770
:106EC0002021301C364A062305F014FC381C07F03C
:106ED00063FF301C012105F09DFE002802D0381C04
:106EE00007F06AFE0021301C05F094FEC1B2381C88
:106EF00007F080FE0699002907D00121301C0A1CEA
:106F000005F0B8FE381C07F057FE0321301C05F0D1
:106F100081FE05F0CDF80421301C05F07BFE214BED
:106F2000195C039800F074F9049805F039F81E4BC9
:106F30001B78DA0705D5201CFFF76EFD201CFFF734
:106F4000B5FD201CFEF7CBFD281C02F06BFC422394
:106F50000122FF33E2541DB0F0BD002226E7C046F7
:106F600000100040B057010050260020FFFF000035
:106F700068CC0000BD570100741E00206C040000A6
:106F80003C040000E4D80000C957010068860000F6
:106F9000D1570100D5570100EC570100DE57010021
:106FA00048570100025A01003804004010B5041C83
:106FB0008068002801D00BF081FB062020560028B5
:106FC00002DB002108F0C0FD201C10BD10B5041C20
:106FD00006202056002807DB012108F0B5FD062019
:106FE0002056002108F00AFE0123637010BD70B521
:106FF000041C80680E1C002801D00BF05FFB237B73
:10700000E57BED1A6B1E9D4103357543ADB2A5803E
:10701000281C0BF049FBA060002805D000212A1C89
:107020000BF06EFB668001E0A080608070BD037B8A
:1070300070B5C57B8C11ED1A6B425D410A110323BB
:107040008E101E401C401A400B4046738373FF266F
:1070500000238E425B4103708368EDB2C4730273F8
:10706000002B07D0A21A53425341AB4202D04188B1
:10707000FFF7BDFF70BD0000F8B58368041C002B4E
:1070800000D168E008F042FA2369C01A3128F9D922
:1070900072B60623E35618275F432F4D0121EB19E3
:1070A0005B68A6889940A3687D5D9E195A1C187874
:1070B0002A4BED01EF182A4BED1880233960C046AA
:1070C000C046C046C046C046C046C046C04618423C
:1070D00015D0C046C046C046C046C046C046C046A1
:1070E000C046C046C046C046C046C046C046C04670
:1070F000C046C046C046C046C046296014E029606C
:10710000C046C046C046C046C046C046C046C0464F
:10711000C046C046C046C046C046C046C046C0463F
:10712000C046C046C046C0465B0809D0C046C046FF
:10713000C046C046C046C046C046C046C046BDE781
:1071400062B672B6B24202D210780132B5E762B6C8
:1071500008F0DCF92061F8BD6861010018440041C5
:107160001444004138B54378041C0D1C002B06D094
:1071700006202056002802DB002108F0E5FC637899
:10718000A571002B07D0281C012108F0DDFC281C6C
:10719000002108F033FD38BD70B5041C00200E1C22
:1071A0006070191CE071A0602061201C151CFFF7A5
:1071B0003EFF311C201CFFF71AFF201C291CFFF783
:1071C000D1FF201C70BDF0B505AC257844888C42F9
:1071D0001BD9C479002C05D0624363436543120A6E
:1071E0001B0A2D0AC47B077B8668A74203D10324B0
:1071F0006143711803E08900711800260E55047B65
:107200000A55427B8B54837BCD54F0BD4088704738
:1072100070B50B1C4D1CC179EDB2041C8D421BD006
:1072200001398668C9B20020814208D0FF2B01D104
:107230000A4801E0280201380AF0CAF980B2331C7A
:107240009A1BA18892B2914205D91A784243121230
:107250001A700133F4E7E57170BDC046FFFF00000E
:10726000C0790138C0B2704708B5002182888068B3
:107270000BF046FA08BD0000094B1A68002A0BD132
:10728000EFF31081074A002904D172B6BFF35F8F74
:10729000012100E0002111701A6801321A60704764
:1072A00010250020E0250020084B1A68002A0CD089
:1072B0001A68013A1A601B68002B06D1044B1B7830
:1072C000002B02D0BFF35F8F62B6704710250020FD
:1072D000E025002010B5FF23002103700323041CC8
:1072E00041708170C170017143710C2208300BF044
:1072F00007FA201C10BD000008B501220B1C13402A
:1073000005D00D4B1A700423437083680FE00222EE
:10731000114204D008490A704370C36807E004238F
:10732000194207D0044A1370072343700369002BE6
:1073300000D0984708BDC0464E48004110B5FFF741
:107340009BFF0C4B0F211B8C0B400B2B0ED80A4ABA
:1073500098008058002809D0084A14788C432343A9
:107360001370074B1978C9B2FFF7C6FFFFF79CFFF0
:1073700010BDC04600480041E42500203F480041C0
:107380004E480041F8B502780023051C181C0B2A52
:1073900075D92B702B780B2B70D83B4E012231689E
:1073A0009A40114200D06CE0FFF766FF3768374C17
:1073B000002F2BD1364B20215A6936480A435A6197
:1073C000DA6910210A43DA61238802229343238079
:1073D00023880122134323802F4B6063391CA3634E
:1073E000C0220BF08DF9391CC0222B480BF088F914
:1073F0002A4B402223802A4B2A491A60C12292003C
:1074000098580140C0200004014399502B78012274
:107410003168101C98400143316023499800455061
:1074200022490F200E780340864333430B70204BD4
:10743000022019788143197019781143197029783D
:1074400023698A4093432361636C6022934363649E
:107450002A793F23616C1A40164B12020B401343EA
:1074600063646A790323616C1A40134B92050B40E5
:1074700013436364FFF718FF002000E0012040B2CF
:10748000F8BD013385E7C0461425002000480041BF
:10749000000400405024002020250020020F00009E
:1074A00000E100E0FFFF00FFE42500203F4800412D
:1074B00040480041FFC0FFFFFFFF3FFF38B5041CFD
:1074C000FFF7DAFE63780625AB4230D0227802253A
:1074D0000B2A2CD8A3780325002B28D0164913019A
:1074E000CB185B88002B22D0A168E0684B1E994125
:1074F000CBB2002801D002230B432069002801D021
:1075000004210B43062161700C490F200C780240C6
:10751000844322430A700A4A0221137007229A43C5
:10752000084B00251A70084B1A780A431A70FFF7A7
:10753000BBFE68B238BDC046502400203F48004121
:107540004D4800414C480041404800410232920001
:107550001150704738B5041C217103780D1C0B2B9A
:1075600015D8FFF789FE0A4A207814780F218C433A
:107570000840211C01431170064B3F2215402A028E
:1075800005495D6C0D4015435D64FFF78DFE38BD08
:107590003F48004100480041FFC0FFFF38B5041CD0
:1075A000617103780D1C0B2B15D8FFF765FE0A4A95
:1075B000207814780F218C430840211C014311705E
:1075C000064B03221540AA0505495D6C0D40154385
:1075D0005D64FFF769FE38BD3F4800410048004147
:1075E000FFFF3FFFF0B587B000930CAB1D780DABEC
:1075F0001B78041C02930EAB1B780078039310AB2E
:10760000049105921F780B2801D900208DE0637842
:10761000062BFAD0A378002B12D01020011C0BF0FF
:1076200037F80028F1D02278414B12019A18131C28
:10763000D968002977D0D9688A4274D0DB68F7E727
:107640003B4B000118180123A3709D4204D0042273
:10765000022D02D01A1C00E00222018806261943DE
:1076600001800188B1430180068818218E4306807D
:1076700003210D4001882E028C462E496546294083
:10768000351C0D430299058019408E022A4D018850
:107690000D40311C2943018005880399AC461940EF
:1076A000264DCE0261460D40311C294301803B40EE
:1076B00005881903224B009E2B400B43038003884F
:1076C0000F9D07212940DB044903DB0C0B4303809A
:1076D000049DB3B2029E43804560002E08D0009BFB
:1076E00041685343002F01D00F9DAB405B184360AE
:1076F000059E039D8660002D0BD0009E7243002FD7
:1077000004D10F9D8368AA40D21801E086689219BF
:107710008260E27800239A4203D02378044A1B0156
:10772000D318C36001E0D8608DE707B0F0BDC04654
:1077300050240020FFFCFFFFFFFBFFFFFFF7FFFFD0
:10774000FFEFFFFF30B50D88039CAD05AD0F012D98
:1077500004D00420022D02D0012000E00220002CE1
:1077600001D0A4B24C80002A14D04A600A88540583
:1077700010D50C880122240B144206D04A880D88AB
:1077800042436D0B4C68AA4002E04A884C68424371
:1077900012194A60002B14D08B600B881A0510D583
:1077A0000A880123120B1A4206D14C880A886043CA
:1077B000520B8B68904002E04A888B685043C01897
:1077C000886030BD8378C170002B12D00278094BDD
:1077D00012019A18131CD868002802D0D868824277
:1077E00005D1481E814149420A40DA6001E0DB6868
:1077F000F1E770475024002008B5024B1B689847FA
:1078000008BDC046F43F000008B5064B1A68064B99
:107810009A4202D8FFF7F0FF03E0044B081C1B68F4
:10782000984708BDFC3F000001000100E83F000050
:1078300008B502480121FFF7E7FF08BD0D2400202D
:1078400008B502480221FFF7DFFF08BD0D24002024
:1078500008B5064807F07EFC1920012108F074F9EC
:107860001920012108F0CAF908BDC046642F002084
:1078700073B500246B465C711C711E49019A061C8D
:107880001D48009107F08EFC1920211C08F0B6F964
:107890001023013BFDD1184D0121281C07F0B8FC35
:1078A0000121041C192008F0A9F9281C07F096FCF6
:1078B000331C0022211C0120114101420AD11988E8
:1078C0000E4DA94201D809180EE00D4DA9420CD168
:1078D00018800AE01988002907D00948814201D19F
:1078E000002101E001214942198001320233082AB6
:1078F000E0D173BD001BB700642F0020FDFF000026
:10790000FFFF00004900085A013843425841C0B205
:10791000704700004900034B085AC01843425841C1
:10792000C0B270470100FFFF4900085A0132801AB7
:1079300043425841C0B2704708B54900012A07D8F0
:10794000435A0B4A013B9BB200209A4240410AE055
:10795000405A084B984208D0111C09F02FFE88B2FB
:10796000013843425841C0B200E0002008BDC04683
:10797000FDFF0000FFFF0000024B1B68022BFBD93C
:107980007047C046701A0020054B1B68022B05D8B3
:10799000044B8022596C92040A435A647047C046D3
:1079A000701A002000480041064B1A6801321A6024
:1079B0001B68012B05D8044B8022596C92040A43A2
:1079C0005A647047701A00200048004108B5011C35
:1079D000014807F01DFC08BD642F002070B50E1C87
:1079E000151C8021A022041C01F090FE044BE662CD
:1079F0000833236000232563201C237470BDC04618
:107A0000785A010038B50121041CC06A08F09CF8BE
:107A1000206B012108F098F8E26A18214A43124BC2
:107A2000124DD056C0014019E061206B4143C85649
:107A3000C00140192062981840680122151C854039
:107A4000E5625B185B680A489A40226307F082FB94
:107A5000084B094AE16A1A6000221A715A71E369F7
:107A60001A688A431A6038BD6861010010440041F9
:107A7000642F00202C26002000366E0173B50B1CED
:107A8000174E31680029FBD0164D174C520000925A
:107A9000201C1A1C29680023FFF754FEFFF7ECFB9B
:107AA0003368124A013B3360167820780F218E43E9
:107AB0000840311C0E4B01431170596C8022920416
:107AC0000A435A640B4B1E78FFF7EEFB2B68B60790
:107AD000DB68F60F2B6002D1201CFFF7EFFC73BDB3
:107AE000701A002028260020142600203F4800415C
:107AF0000048004140480041036A016B1A680A438C
:107B00001A60C369C16A1A688A431A607047036AB7
:107B1000016B1A688A431A60C369C16A1A688A438A
:107B20001A607047C369C26A19680A431A607047CD
:107B300070B50A4B0A4C051C0E1C201C06CB07F026
:107B400031FB281CFFF7E3FF301CFFF73FFF281C29
:107B5000FFF7E8FF201C07F041FB70BD2C2600203A
:107B6000642F002008B54B424B412121C91AFFF771
:107B7000DFFF08BD70B50A4B0A4C051C0E1C201C0B
:107B800006CB07F00FFB281CFFF7B6FF301CFFF7F2
:107B90001DFF281CFFF7C6FF201C07F01FFB70BD50
:107BA0002C260020642F0020F7B5041C0F1C1E1C7F
:107BB0002A2108AB1D780192FFF7BAFF201C002193
:107BC000FFF7D8FF391C201CFFF7D4FF201C002131
:107BD000FFF7D0FF311C201CFFF7CCFF201C2B210E
:107BE000FFF7A6FF201C0021FFF7C4FF201C01990E
:107BF000FFF7C0FF201C0021FFF7BCFF291C201C41
:107C0000FFF7B8FF201C2C21FFF792FFF7BD000003
:107C1000F0B585B000236A461E4F0E1C53731E49F3
:107C20001373051C039A381C0291741C07F0BAFAEE
:107C30003678281C002E26D0FFF769FF2078FFF742
:107C4000C5FE62787F23111C99431A40281C0091BD
:107C50000192FFF751FFA71C3C1C019ABB18D9B237
:107C6000E2B2914204D02078FFF7B0FE0134F4E78D
:107C700000991C1C002903D01878013407F078FC07
:107C8000013EF6B2D5E7FFF74DFF024807F0A6FA2E
:107C900005B0F0BD642F0020001BB700F0B587B021
:107CA000041CFFF7AFFE2B4B1B785A0603D4201C95
:107CB0002949FFF7ADFF201C2849FFF7A9FF201C29
:107CC0003621FFF735FF201CC021FFF753FF244D5D
:107CD0000A21281CFFF73EFC281C0221FFF75EFC4E
:107CE000281C01210024FFF76DFD0126281CFFF749
:107CF00049FB211C231C00940196029403940494D4
:107D0000281C184AFFF76EFC174F182238600388AA
:107D1000211C13430380134A231C009401960294F0
:107D200003940494281CFFF75DFC786003881822F4
:107D3000134303803A680D4B281C1A600C49321C0F
:107D4000FFF704FC281C0B490222FFF7FFFB07B0DA
:107D5000F0BDC04638040040705A0100075A0100C7
:107D6000142600202818004234260020282600204F
:107D7000A979000089790000F0B587B002AF3D8D88
:107D800094466A000832D208D200041C6846801A61
:107D9000854602AE7B60FE60002290B2A84208D207
:107DA0007B6850001E5A013276BA331CFE6833528B
:107DB000F3E76646F2B2C9B24B1E501C5B19C0B263
:107DC0000090DBB2201CFFF7EFFE0C4E0C4B301C7A
:107DD00006CB07F0E7F9201CFFF78EFEF9682A1C96
:107DE000201CFFF74BFEFFF7C7FD201CFFF79AFE94
:107DF000301C07F0F3F9BD4605B0F0BD642F00203C
:107E00002C26002073B5041C00292ADB0C20235EDD
:107E10008B4226DD002A24DB0E20235E934220DDE8
:107E2000D2B2C9B2501C4B1CC0B2DBB20090201CB5
:107E3000FFF7BAFE0B4D0C4B281C06CB07F0B2F92E
:107E4000201CFFF759FE094E3088000AFFF7BEFDDF
:107E50003078FFF7BBFD201CFFF764FE281C07F0FD
:107E6000BDF973BD642F00202C260020542600206D
:107E7000F0B5041C1D1C0C20235E85B08B4232DD46
:107E8000E38918B282422EDA5619864201DD9D1A24
:107E90002DB2D2B2CBB2511E4919C9B20091201CE9
:107EA000191CFFF781FE114B114E1F88301C3B0A35
:107EB0000393104BFFB206CB07F074F9201CFFF7B9
:107EC0001BFEADB2002D08D00398FFF77FFD013DEA
:107ED000381CFFF77BFDADB2F4E7201CFFF722FE54
:107EE000301C07F07BF905B0F0BDC04654260020D9
:107EF000642F00202C260020F0B51D1C8389041C53
:107F000018B285B0814231DA0E27E65F96422DDD48
:107F10004E19864201DD5D1A2DB2C9B24B1ED2B296
:107F20005B19DBB20092201CFFF73EFE104B114E96
:107F30001F88301C3B0A03930F4BFFB206CB07F0A0
:107F400031F9201CFFF7D8FDADB2002D08D0039801
:107F5000FFF73CFD013D381CFFF738FDADB2F4E7FB
:107F6000201CFFF7DFFD301C07F038F905B0F0BD2D
:107F700054260020642F00202C260020F0B587B066
:107F8000041C03930CAB00201E5EA08905B2A9421D
:107F900044DAE3899C461BB29A423FDA039FCF1929
:107FA000AF4202DD401A05B203959019984202DDF6
:107FB0006746BE1A36B2D2B2C9B2501E039D4B1EDE
:107FC0008019C0B25B19DBB20090201CFFF7ECFDFA
:107FD000134B1B881F0ADBB204970593114F124BFA
:107FE000381C06CB07F0DEF8201CFFF785FD002EBD
:107FF0000EDD039D002D08DD0498FFF7E7FC013D31
:108000000598FFF7E3FC2DB2F4E7013E36B2EEE748
:10801000201CFFF787FD381C07F0E0F807B0F0BD23
:1080200054260020642F00202C2600205343F0B556
:10803000DC17A40FE3189B105B00C918144B92B215
:108040001C68920800239DB2954220D25D004D5BD2
:108050000F262F1137407F003F5B01337FBA078027
:1080600047802F1C37407F003F5B7FBA8780C780E7
:108070002F0B2D122E407F0076003F5B355B7FBAC1
:108080006DBA078147818581C5811030DBE7F0BD7E
:10809000741A002070B5041C0D1C3621FFF748FD32
:1080A0006574032D25D8281C8026A02509F02EFAFA
:1080B000020A121A201CC021FFF75CFDA023A68132
:1080C000E38116E0201CA021FFF754FD8023A58149
:1080D000E3810EE0201C0021FFF74CFDA023A681C8
:1080E000E38106E0201C6021FFF744FD8023A58189
:1080F000E38170BD407C704708B50548FFF7EAF89A
:10810000044B054A1A6000225A711A7108BDC04614
:10811000142600202C26002000093D00F0B58FB069
:1081200002AF1C1CF862181CBA620E1C02F0BAFAEC
:10813000A589E289002D00D198E0002A00D195E0C0
:10814000A37A012B00D08BE0F96A0C23C95E2BB215
:108150007962994200D083E0F96A0E23CB5E11B2B6
:1081600079618B4200D07BE06E463E617E6A694653
:1081700073000833DB08DB00C91A8D46C91A02AE4A
:10818000013A8D46BE62D2B202AEFE61002100927B
:108190006B1EDBB2F86A0A1CFFF706FD354B36484A
:1081A00006CB06F0FFFFADB2F86AFFF7A5FC00268C
:1081B000BD61AD08FD607E607D687E69B54244DAD0
:1081C0007B6A7D6826696B43DA17920FD3189B1080
:1081D0005B00F3183B62294B00221968BB6AFD68FB
:1081E00090B2A8421FD23D6A5000285A0F250611AE
:1081F0002E40AC4675006D5A66466DBA1D806546C8
:1082000005406D006D5A01326DBA5D80050B00129C
:1082100030406D0040006D5A405A6DBA40BA9D80A2
:10822000D8800833DBE7F86AB96ABA69FFF726FC39
:10823000134B1B68012BFBD97E68BB6A0136B6B2B3
:108240007E60FE69FB61BE62B6E7FFF795FBF86AE8
:10825000FFF768FC084806F0C1FF3D69AD4605E040
:10826000F86A311CBA6A231C00F000FEBD460DB04E
:10827000F0BDC0462C260020642F0020741A002078
:10828000701A0020F0B58FB002AF041C4820F961CD
:10829000C05FBA61F8624C22181CBB62D65F02F064
:1082A00001FAA389FD6918B27B60854200DDD3E045
:1082B000FD6AE9176A18FD694A40D54200D5CBE04E
:1082C000E189BD698C4609B28D4200DDC4E0F31737
:1082D000F2185A40D54200D5BEE0FD6A002D00D10B
:1082E000BAE0002E00D1B7E0BA6A9589D289002D94
:1082F00000D1B1E0002A00D1AEE02BB2FD6A7B6272
:10830000AB420AD115B2B54207D12368201C5D6B80
:10831000F969BA69BB6AA8479EE07B6A5D00FB6A9F
:10832000AB4200D08FE015B27D616A00964200D06A
:1083300089E0984200D086E0B14200D083E06D46EB
:108340003D617D6A6846AA000832D208D200801AD0
:108350008546801A7B68624602AD854602A9013ACD
:108360003962D2B20021013BDBB20092201C0A1C10
:10837000FFF71AFC3A4B3B4806CB06F013FF201CD4
:10838000FFF7BAFBBA6A937A002B37D11E1C7A69C1
:10839000964228DA7B6A7343FB620023796A8B4238
:1083A0000DDAF86A9A00C118B86A49000069013309
:1083B000095AA81849BA41809BB2A952EEE7A2898E
:1083C000201C291CFFF75AFBA289201C291CFFF73F
:1083D00055FB254B1B68002BFBD02B1C01363D6A3F
:1083E000B6B23B62D3E7FFF7C7FA201CFFF79AFB50
:1083F0001C4806F0F3FE3D69AD462DE0012B20D16F
:10840000002679698E42EEDAB86A7A6A0069331C0E
:10841000B860B968281CFFF709FEA289201C291C36
:10842000FFF72CFBA289201C291CFFF727FB0E4B12
:108430001B68002BFBD02B1C01363D6AB6B23B6299
:10844000DFE73D69AD46FD6A01960095201CF9699C
:10845000BA69BB6A00F0C0F9BD460DB0F0BDC046B8
:108460002C260020642F0020701A0020014B0833B6
:1084700003607047885D0100F7B51F1C08AB151C31
:108480000E1C0022995E03680191196A041C2A1CC3
:108490008C463B1C311CE0472368019A196A013A5B
:1084A00052198C46201C311C3B1C12B2E047236839
:1084B000201CDA69311C9446019B2A1CE047013FCD
:1084C0002368BE1931B2DF692A1C201C019BB84702
:1084D000F7BD37B50C1C002B04DA0132D2185B4211
:1084E00012B21BB2D318013B01681BB200938D6915
:1084F000231C211CA84737BD13B5002B04DA01311A
:10850000C9185B4209B21BB20468CB180092013B48
:108510001BB2A469A04713BDF7B5009308AB0D1CAF
:10852000171C0022995E061C01912C1C009AAB18A6
:108530009C420ADA3368301CD9693A1C8C46019B8C
:10854000211C0134E04724B2F0E7F7BD13B50C213C
:10855000435E0E24015F026800910021946A0A1CA8
:10856000A04713BDF0B58FB01C1C14AB1B78051CC5
:108570005BB20A9105920893012B03D103681E6C2C
:10858000231CB04722780898D11DC90809910721FA
:108590000A40C0B20821891A4243C9B2A31C6478B8
:1085A0000C91D2B200210B9407900D920691069A7D
:1085B0000B9882423DD000210A9C049303910398BA
:1085C0000999049B88422AD2039B049A0133DBB2A7
:1085D000177803930026039B0998834206D10C99D0
:1085E0008E4203D10D9A141964B214E07BB2002BB1
:1085F00008DA089B2A680093906A211C8446059A31
:10860000281CE047079901367F000C19F6B2FFB22B
:1086100064B2082EDFD1049A01320492CFE70599A3
:108620000798421852B20592069A0132D2B20692C7
:10863000BDE70FB0F0BD0000F0B5594A87B0126831
:108640000B1C002A4CD10A2918D1564B564D1978CB
:10865000564B2D781B785943554B1C880C19A4B2E6
:108660001C80002D06D024B261180E24005F8142C8
:1086700000DB1A804F4B00221A808DE00D2900D1BB
:108680008AE04949474C0978494E002916D0277895
:10869000484D05970027E95F474F8C463F7805997D
:1086A0004F43BC440C21475EBC4507DD2A803F4A4E
:1086B0000599127851433288891831803D4D002246
:1086C000A95E0027F25F267800960768FE6CB04727
:1086D000394B1A78237853432A889B182B805BE008
:1086E0000A290BD1334B00211980917A2D4A304B46
:1086F00012784A43198852181A804DE00D294BD040
:10870000157AA94248D3517A994245D35D1B5168E5
:10871000EDB2ED006D18AC78E9780494049F214E19
:10872000244C002F32D0002930D069798C461E4964
:10873000097800291CD0377803970027E15F05915D
:10874000614649B28C4604990F1C039967444F4314
:108750000599C9198C460C21475EBC4508DB927A05
:108760000399002751432780114F3A88891839808F
:108770000F4F0022A15E3A1C0027D25F3778059286
:1087800000970768FA6C9446059AE0472A7933788F
:10879000534322889B182380012007B0F0BDC046B8
:1087A0004C260020502600207C1A00205126002054
:1087B0004426002058260020402600207047000054
:1087C00010B5044B041C0833036007F0CFFA201CDB
:1087D00010BDC046885D0100F0B59BB002AFB86522
:1087E0007820F965C65F7C21181C7A651C1CCD5F5A
:1087F00001F058FFBA6DFB6D928910B27A64834222
:1088000000DD98E1F11772184A40D34200D592E199
:10881000BB6DDB8919B29C467B6D39658B4200DDEF
:1088200089E1E9176B184B40796DD94200D582E197
:10883000002E00D17FE1002D00D17CE1A1893962B9
:10884000E1897963396A09B2B964B1420CD1796BB3
:1088500009B2A94208D1BD6DB86D2B68F96D5D6B89
:108860007A6D231CA84766E1F60FFE6016B2ED0F85
:10887000FE63FE6DBD601DB2FD62002E07DAB1B26F
:108880004842891880B20DB23864FD640FE0FE6D75
:10889000FD6B7219824206DD786C811B0DB20026D9
:1088A000FD643E6403E0FD6B0026FD643E647D6D67
:1088B000002D07DAAAB25142D31889B21EB2396527
:1088C0003E6310E07D6DFE6A386DAB19834206DDB4
:1088D00061464B1B1DB200263D633E6503E0FD6A09
:1088E00000263D633E65BD6DAB7A002B00D096E05F
:1088F000FE6B6D4673000833DB08DB00E81A854623
:108900002689A37ABD6202ADBD637E62012B0AD1C6
:10891000627A002A06D0894B227A1B685200D35A09
:10892000238100E02381BB6C00250133DA0FD318CB
:108930005B10BB617D647D6C3E6B2BB2B34269DA28
:108940003D6D7E6B28B21B1832B2181C5043F96A79
:1089500008F03EFEBE6880B2002E03D07B6B013B68
:10896000181A80B2BE69BD6C46434543734B7E61A5
:108970001B68BE6BFD613B610025F86C2BB2834226
:108980002FDA396CBA6C08B228185043F96B08F02A
:108990001FFEFB6880B2002B03D03B6A013B181A14
:1089A00080B2A17A3960002906D1FA6921691018CC
:1089B0004000435A338011E03A68012A0ED1216900
:1089C0007A6943088918CB5C3968084200D11B09D1
:1089D0000F2213403A695B009B5A338001350236FF
:1089E000CBE77E6CF86DB5B2BE6D33683E6C311866
:1089F0003E6D786D09B23218FE6CAA18B0B20090C4
:108A0000019401355E6912B2B86DBB6BADB2B0476F
:108A10007D6490E77D6A2581BE6AB5468BE0012BB7
:108A200000D088E0A37A6D46FD61002B02D1FE697B
:108A3000B54680E0FB6B3E6C0833DB08DB00E81AD0
:108A4000854602ADBD62BB6CBD6C36B20133754369
:108A5000DA0FD3185B107E620026BB613D617E6435
:108A60007D6C3E6B2BB2B342E1DA3E6D7D6B30B272
:108A70001B182AB2181C5043F96A08F0A9FDBD68FA
:108A800080B2002D03D07B6B013B181A80B2BE6907
:108A90003D694643BD63BD6A7E610026F86C33B212
:108AA00083422FDAF96BB86B08F092FDF96880B257
:108AB000002903D03B6A013B181A80B2420823699F
:108AC000796994465A186346D25CC10700D41209EA
:108AD000786A0F238446F86D1A408444B444604693
:108AE0002978C00704D599430A432A70013503E069
:108AF00012010B4013432B70B96BBA6C0136891805
:108B0000B963CBE77E6CF86DB5B2BE6D33683E6C71
:108B100031183E6D786D09B23218FE6CAA18B0B2E9
:108B20000090019401355E6912B2B86DBB6AADB2B6
:108B3000B0477D6494E7BD4619B0F0BD741A0020BB
:108B400070B504AC25785B004C1C0978C3189842BA
:108B500011D0002D07D00F2631404900895A0180DD
:108B60002178013403E00E117600B65A0680012602
:108B700075400230EBE770BDF0B5244B85B01D6841
:108B800000235900695ADAB281423BD00133102BDD
:108B9000F7D1C300DBB2C2100193FC231A400012CC
:108BA0000723984302920023194A03901C1C590082
:108BB000695AFC26CF103E40029FD8B2BF1BFE1759
:108BC000BF197740009707260F12B743039EF71B84
:108BD000FE17BF197740009EF619CF000199FFB22A
:108BE000CF1BB446FE17BF1977406146CE19B6B207
:108BF000964201D3161C201C0133102B03D0041CF9
:108C0000321CD4E7101C05B0F0BDC046741A002019
:108C1000FFFF000008B50368DB6A984708BD000045
:108C2000F0B593B002AFB863FA6158205C22796165
:108C3000D25FC05F602564217863BA62ED5FC95F6F
:108C4000BE6EFD623961B27A012A5FD1BC6BA17A36
:108C5000002900D088E03589BD61717A002906D0ED
:108C6000814A317A126849008A5A328100E03281A1
:108C70000133DA0FBC6AD3185B106400FD6A1A1C5A
:108C8000FC607C6B6A437B62E30F1B195B10D3189B
:108C9000FB6300243D69AC4235DAFB686846083363
:108CA000DB08DB00C11A8D463269796BFB6BB8605B
:108CB000B86A02AD3D6285B288B2D1186A4B38639A
:108CC0001A68012303400093386A2B1CFFF738FF12
:108CD000B86B396B036878690A1811B2FA6A94465E
:108CE000FA69009594446046019602195D69B86B73
:108CF00012B23B6AA847BD68786AAD46FD6B013485
:108D00002D18FD63C6E7BC693481A9E0002A00D0B4
:108D1000A6E0BD6BAC7A002C00D0A1E05D00FD6345
:108D2000FD6A786B5D432D186D003B699C4200DB4A
:108D300096E0B96B7A6B7B690868D1180AB23A631E
:108D4000FB6AFA6999180A19316912B24B19B96AA2
:108D5000019689B200914169B86B8C46396BE04746
:108D6000FA6B0134AD18E0E7012979D10133DA0F4C
:108D7000D3185B103B62BB6AFC6A0133DA0FD3186D
:108D80005B10BB610133BB603B6A7D6B6343EA0FE1
:108D9000521952109A183A632A1C0132D10F8A18BC
:108DA00052109A1800247A62FC63FC6B3D69AC4255
:108DB00056DA7D693469A9B2C80732D5BB686D46F9
:108DC000FD6007337D6ADB086A466419DB00D01A50
:108DD000221C8546013A10787C6002AB0022BD69F6
:108DE000954209DB7C680001A55C2C112043985456
:108DF0000132D2B2281CF2E7BC6B7D6B20684919A6
:108E0000FC6AFD6909B26219FC6BBD6A1219ACB249
:108E100000940196446912B2B86BA047FC68A5465D
:108E200013E0BD6BFB6928687D6B4919FD6A09B2C7
:108E3000EA18FD6B52193D6B12B26319BD6A0196B7
:108E4000ACB200944569B86BA847FC6B3D6B01342C
:108E5000FC633C6A2D193D637D6A2D197D62A4E790
:108E6000BD4611B0F0BDC046741A0020F0B58FB0F9
:108E70000A90181C1E1C0D1C141C01F013FC0A9FE8
:108E8000B189B889F38907B2BD4256DC0AB20B92A8
:108E90005219944651D40A9AD289099212B20C926C
:108EA00094424ADC1AB212190D9246D4002D11DAFE
:108EB000AAB294466144524292B289B207920A1C05
:108EC00069460A8411B2B94201DD6A4610846F46D0
:108ED000398C08E0BC4504DD411B002089B20790B5
:108EE00001E000220792002C0DDAA0B24742C01820
:108EF00080B2BFB2BC46031C07B20C9887420ADDA1
:108F0000099A131C07E00D980C9A0027BC46904262
:108F100002DD099F3B1B9BB2079809B20191614694
:108F200002B20FB21BB200920393029704960A9802
:108F3000291C221C0B9BFFF773FE0FB0F0BDF0B590
:108F40008DB0099312AB0C1C051C0021585E13ABAD
:108F5000079200229E5E14AB089000201F5E15ABA6
:108F60000022995E09980B9101F09CFB099B99895D
:108F7000DA89002F6DD000296BD00C202B5E9C422B
:108F800067DC08B20A90C44263D40E20295E8C4686
:108F9000079961455DDC12B2D1425AD40899314338
:108FA0000DD10A98B8420AD10B998A4207D12B6891
:108FB000281C5E6B211C079A099BB04749E00A9860
:108FC0000899401A0690874200DD071C0B98921BF7
:108FD000824200DD021C002C0BDAA1B20898CF19E6
:108FE000401A39B20B900F1C00B2994207DD1F1CCA
:108FF00005E03FB2E1190898994201DD1F1B3FB21D
:109000000899641A21B2079C002C0ADAA3B29A18B4
:10901000F41A12B224B2131C624500DD63461BB27F
:109020000AE0079C13B2E218341C624504DD079C79
:109030006246131B1BB2341C079A0294099C961BB0
:109040000090039332B201970494281C0A9BFFF707
:10905000E7FD0DB0F0BD0000014B18787047C04629
:109060005126002008B503681B69984708BD000019
:10907000F0B587B01E1C0CAB049000201B5E0C1CCE
:10908000991A151CCA1789185140321BD01712188B
:109090004240914208DD321C01211E1C131C221C7F
:1090A00001912C1C151C01E000220192B44205DD47
:1090B0002A1C1D1C131C221C341C161C321B92B2B1
:1090C00002925A1BD117501848400590029802B2DC
:1090D000D70FBF187F10BFB29D4202DA0121039162
:1090E00019E0124A039216E0019B0498002B15D058
:1090F000291C221CFFF7B6FF05983F1ABBB29FB28E
:109100003AB2002A05DA0399029A6D189F182DB217
:10911000BFB2013424B2B442E6DD04E0211C2A1CB3
:10912000FFF7A0FFE8E707B0F0BDC046FFFF000073
:10913000F0B58BB0099119780890C81DC00803904C
:10914000072001400491141C04989A1C5B780821A4
:10915000091AE318C9B2DBB206910793079843B224
:109160009C4237D00999161C02910027039B321CA0
:109170009F422CD231787B1C0191DFB20025029AEC
:10918000EBB2D2B2039899180592009349B2874284
:1091900006D1069A934203D1049B591849B213E0B1
:1091A000019843B2002B03DA0898221CFFF75AFFFC
:1091B0000199009A4B000599DBB201315118013534
:1091C000019349B2082DDAD101360291CEE701347C
:1091D00064B2C3E70BB0F0BDF0B58BB0049105925B
:1091E00011A910AA097812780191071C114305D121
:1091F00002680499146C059AA04768E01C785878B6
:1092000002330693E31DDB10079303231A400090FB
:1092100003920025EAB253B20292A34257DADA1758
:10922000520FD218D210D2B208922A4A134004D553
:109230000822013B5242134301335BB280221A41A0
:1092400009920026F2B2009953B28B423DDA079997
:1092500008984B4341B20698C3185B5C09991942C0
:1092600031D0039B022B08D0032B0ED0012B12D13F
:10927000631E5B1B111CDAB20EE0009A611E013AFC
:10928000491B921BC9B2D2B206E00099029A013979
:10929000891BC9B200E00299019800280AD0C007D2
:1092A00002D5631E591AC9B2019B9B0702D50098CB
:1092B000821AD2B20598049B1218C91849B252B248
:1092C000381CFFF7CFFE0136BCE70135A2E70BB033
:1092D000F0BDC04607000080F0B593B01E1C18AB6F
:1092E0001C788E4B051C1B6804910592002B00D046
:1092F0009BE00C202B5E8B4200DC0DE10E216B5EAF
:10930000934200DC08E1864B049A1B786343D31830
:10931000002B00DC00E1834B05981B786343C318E6
:10932000002B00DCF8E0804B1B78002B03D1AF2E24
:1093300001D90136F6B273B2002B01DA203EF6B243
:1093400000210691764A0698127843B2934200DBD8
:10935000E2E0013A934206D0744972430968C918A1
:10936000895C039101E0002203929BB2099363435D
:109370000498002180B2C3189BB208900A93079109
:10938000079B5AB2674B1B789A4249DA039BDB076B
:1093900019D5012C0AD10998089BC118059809B262
:1093A000121812B2281CFFF75DFE31E00A9B6243DF
:1093B00019B2059B2868D21823B20093876A12B2AB
:1093C000281CB84724E05A4B19885A4B1F88B942C9
:1093D0001ED01980012C0AD10998089BC118059844
:1093E00009B2121812B2281CFFF73CFE0EE06243CD
:1093F0000A99059B09B20B91D218296823B20093F0
:10940000886A12B284460B99281CE047494B1F809A
:10941000079B039A01335208DBB203920793AFE72D
:10942000069B0133DBB206938CE71A7A5968B61AA9
:10943000F6B21B68F60076183288F07871790E93D0
:10944000B378B679039208930F9009910A96012C8C
:1094500004D973B24FB29BB2BFB20D936743049A63
:10946000002692B2D719BFB20C92109704960F9AA9
:10947000F3B2934250D2059B0D989BB20B933318D5
:1094800063430B99109ACB189BB211930792002754
:109490000498FBB208991A18D2B28B4236D25307FD
:1094A00007D1039B03990E980133405C9BB2069051
:1094B0000393069909061ED5012C0FD1099A0C9B1E
:1094C0000A9851B259180B9B42B29A187918B218DF
:1094D00009B212B2281CFFF7C5FD0CE0119A0798DB
:1094E00012B2029223B22A68009301B2906A029AE1
:1094F0008446281CE047069807994300DBB2069390
:109500000B199BB201370793BFB2C1E74318DBB217
:1095100001360493B6B2AAE713B0F0BD4C26002082
:1095200040260020512600205626002048260020F4
:10953000422600205426002008B5837A012B07D14B
:10954000074B0F221140188859700901197005E066
:10955000044B49001B68C95A00F014F808BDC04606
:1095600054260020741A002038B5041CFFF7E4FFCD
:10957000051C201CFFF74EFB014B1D8038BDC0466B
:109580005426002010B5837A041C012B07D1081C37
:10959000FFF7F2FA011C201CFFF7CEFF02E0024B9E
:1095A0001888198010BDC0465426002038B5041C08
:1095B000FFF7E8FF051C201CFFF72CFB014B1D806B
:1095C00038BDC04654260020F8B50F1C191C161CC7
:1095D000041CFFF7D7FF391C051C321C201CFFF7A9
:1095E00041FD014B1D80F8BD5426002008B5837A4B
:1095F000012B09D10F231940074B5970090119702C
:109600001A88064B1A8005E0054B49001B68C95AA9
:1096100000F008F808BDC04654260020422600206D
:10962000741A002010B5837A041C012B07D1081C82
:10963000FFF7A2FA011C201CFFF7D8FF03E0024B42
:109640001980024B198010BD4226002054260020AC
:1096500008B5837A012B0BD10F2319401A40094812
:10966000094B41705A700901120101701A7007E02C
:10967000064B49001B685200C95AD25A00F008F83C
:1096800008BDC0465426002042260020741A00203F
:1096900070B5837A051C141C012B0CD1081CFFF734
:1096A0006BFA061C201CFFF767FA311C021C281CF1
:1096B000FFF7CEFF03E0024B1980024B1A8070BD0A
:1096C0005426002042260020024B1880024B1980AD
:1096D0007047C0465826002044260020074B084A01
:1096E00019600878013010704878064A0231196014
:1096F0000130054B107001221A7070474826002077
:109700004026002051260020562600200F4B70B521
:10971000083303600E4B00251D800E4B45601D80F5
:109720000D4BC281012681810C49041C1E70FFF77C
:1097300079FF0B4BA5721E700A4B201C1D700A4B43
:109740000A491D60FFF7CAFF201C70BD885D01003B
:10975000582600204426002050260020FFFF00004D
:109760007C1A0020562600204C260020D05A0100EA
:10977000074A08B500231380064A07491380FFF7FC
:10978000ADFF064A01231370054A137008BDC04699
:109790005826002044260020D05A010050260020E0
:1097A0007C1A002038B5837A041C0D1C012B07D1CC
:1097B000081CFFF7E1F9011C201C00F00DF809E07E
:1097C000ED43FFF7F3FE201CA9B2FFF72BFF201C8F
:1097D000FFF7CEFF38BD000030B585B0041C0D1C6E
:1097E00068460E49102208F082FFA37A002B07D1A9
:1097F0000B4B6D001B68201CE95AFFF7D3FF0BE0F1
:10980000201C291CFFF7B0FE6B46201C595DFFF79A
:10981000EDFE201CFFF7ACFF05B030BD725D01000E
:10982000741A002008B50021FFF7BCFF08BD000036
:109830004223064AFF33D35C002B04D10C23C25EC3
:109840005023002A00D0838918B27047E4220020F8
:109850004223064AFF33D35C002B04D10E23C25EA1
:109860004023002A00D0C38918B27047E4220020A8
:10987000014B19607047C046741A0020014B1960F3
:109880007047C046741A0020014B18687047C046E4
:10989000741A0020054B826808330360002A03D045
:1098A00043681A618289DA837047C046405E0100CE
:1098B00008B503680021DB68984708BD084B82683B
:1098C000083310B5041C0360002A03D043681A61F2
:1098D0000022DA83201CFFF7DDFF201C10BDC046EC
:1098E000205E0100084B8268083310B5041C036039
:1098F000002A03D043681A618289DA83201CFFF7AB
:10990000DDFF201C10BDC046005E0100F0B5CC1884
:1099100083B0002C3BDD0C26845FA14237DA002A9D
:1099200035DB0E27C65F964231DD867A002E30D1B8
:10993000002B43DBCF43FF170F403DB2491BCB1831
:10994000BFB2611BA4468B4200DD0B1CEB18FE0767
:1099500027D406691D49644654431D4D1C196419DA
:109960000D8864007F105B08A5539F420FD20C2422
:10997000005F098840104243BF189A18BF00920048
:109980000804F319B218014302C39342FCD103B097
:10999000F0BD0468013B5B1800921BB2A469A047AC
:1099A000F5E7544309492D1906690C886D00AC533D
:1099B0000C25445F0137A446BFB2CCE75D1C691893
:1099C000DD175B196B4009B21BB2B3E754260020C8
:1099D000FFFFFF7F70B50469002C32D0002930DB17
:1099E000002A2EDB0C23C55EA9422ADA0E26835FED
:1099F000934226DD807A002806D16A43114B8918EC
:109A00001888490008531CE001281AD10135EE0FCF
:109A100075196D106A43CB0F5B185B109B189BB2D6
:109A2000E318084D0F241A78014205D114401C7028
:109A30002A7814431C7004E0A2431A7069780A4320
:109A40001A7070BD5426002010B5041CFFF722FFC9
:109A5000201C06F08BF9201C10BD10B5041CFFF76C
:109A60002DFF201C06F082F9201C10BD10B5041C2F
:109A7000FFF738FF201C06F079F9201C10BD00000C
:109A800038B50E4B041C08330360431CDD7F002DEA
:109A90000ED10069002805D0094B984202D908F080
:109AA0000DFE2561A069002802D003685B68984715
:109AB000201CFEF7DBFC201C38BDC046605E0100A8
:109AC000FFFFFF1F10B5041CFFF7DAFF201C06F094
:109AD0004DF9201C10BD0000F0B589B000AF3C8FDF
